:030000000200AC4F
:0C00AC00787FE4F6D8FD75811D0200F39A
:10000E00444154413A323032322F30352F3137009D
:10001E0054494D453A414D2031323A333000535414
:10002E0045503A313230303000465245513A393827
:10003E0062706D2073616665005354415254494E8F
:10004E00472055502E005354415254494E47205587
:10005E00502E2E005354415254494E472055502E87
:10006E002E2E0052454144592E20202020202020A3
:10007E00202020200052454144592E2E0052454149
:10008E0044592E2E2E00506C61636520696E70757A
:0E009E0074206E756D313A003200340035006A
:10036900041200000000040E00000000020C00034B
:08037900020A00000208000066
:100335005389F0438901D2AF758CFC758A67D2A9C0
:0B034500D28CC296C29712013880FBD8
:100138002093297FE87E031202F420931CE50D1515
:100148000D7002150CC3E50D9401E50C94005006E2
:10015800750C00750D051202BE3093FD2094277FA3
:10016800E87E031202F420941A050DE50D700205CD
:100178000CD39405E50C94004006750C00750D0130
:100188001202BE3094FD20951C7FE87E031202F413
:1001980020950FE50B450A7009120202750A0075D1
:0601A8000B013095FD2261
:10028C00C296D2977BFF7A00790E7D027F01120114
:10029C00B47A00791E1201AE7BFF7A00792C7D02B4
:1002AC007F031201B47BFF7A0079377D027F040251
:0202BC0001B48B
:100202001203507F107E271202F4D2967A007947A9
:100212001201AE7BFF7A0079541201B07BFF7A00A3
:1002220079621201B07F107E271202F47BFF7A00FE
:1002320079711201B07BFF7A0079831201B07BFFE2
:100242007A00798B1201B07F107E271202F402022B
:010252008C1F
:1002BE007F01120395E50C7022E50D24FE601014EB
:1002CE0060101460101460102404700F0203820278
:0C02DE0003B90200030203C61203D3227E
:1003820074942509F974003508FA7BFF7D027F0118
:030392000201B4B1
:0D03B9007BFF7A0079A67D027F010201B46E
:0300030002028C6A
:0D03C6007BFF7A0079A87D027F010201B45F
:0D03D3007BFF7A0079AA7D027F010201B450
:0601AE007BFF7D027F02D1
:1001B4008D168B178A188919EF24FE6010146013AA
:1001C4001460162403701AE51624808010E51624A2
:1001D400C0800AE51624948004E51624D4FF120393
:1001E40095AB17AA18A919120253FF60101203A79E
:0E01F40074012519F519E43518F51880E42278
:100350007F381203957F081203957F011203957F62
:09036000061203957F0C020395BF
:10039500C2901202EAD2927FF47E017D007C0002B7
:0203A50002F85C
:1003A700D2901202EAD2927FF47E017D007C000295
:0203B70002F84A
:0E02EA00C2918F80C2927F017E007D007C0059
:1002F8008F1D8E1C8D1B8C1A781A74FF12026EECDF
:090308004D4E4F60030080F0220D
:03000B00020311DC
:10031100C0E0C0D0758CFC758A67E5152401F51520
:10032100E43514F514E43513F513E43512F512D060
:04033100D0D0E03216
:1000B800020335E493A3F8E493A34003F68001F226
:1000C80008DFF48029E493A3F85407240CC8C33349
:1000D800C4540F4420C8834004F456800146F6DF18
:1000E800E4800B0102040810204080900369E47E3C
:1000F800019360BCA3FF543F30E509541FFEE4930D
:10010800A360010ECF54C025E060A840B8E493A3D3
:10011800FAE493A3F8E493A3C8C582C8CAC583CAFE
:10012800F0A3C8C582C8CAC583CADFE9DEE780BEB6
:01038100007B
:10025300BB010689828A83E0225002E722BBFE02A9
:09026300E32289828A83E49322DC
:10026C007401FF3395E0FEFDFC080808E6CF2FF67D
:10027C0018E6CE3EF618E6CD3DF618E6CC3CF62256
:00000001FF
